{
    "8729e27eeee4d333665b1ef9fe0e28fee037ef2e6ad32d22653d6647554eb49b": {
        "transaction": {
            "amount" : 0.05000000,
            "confirmations" : 1,
            "blockhash" : "0000000000000000105a623a460f0861133b419321309d301a89f6dc82c20261",
            "blockindex" : 407,
            "blocktime" : 1410971093,
            "txid" : "8729e27eeee4d333665b1ef9fe0e28fee037ef2e6ad32d22653d6647554eb49b",
            "walletconflicts" : [
            ],
            "time" : 1410970482,
            "timereceived" : 1410970482,
            "details" : [
                {
                    "account" : "users",
                    "address" : "1Pb8gzfNFxHNAG1YLYuoUqS8Syctrg11Rk",
                    "category" : "receive",
                    "amount" : 0.05000000
                }
            ],
            "hex" : "01000000010dd2cbc86d40ecddca4532566f0e052e9c52d6a327f0c479cfdcc7d7c58f0cf0010000008c493046022100f1b8d90f6371fb90f74a0bc773a5ba7a6d893eeb96057962e484d44336d86195022100e7649366a02e4b1e95bf533cdba71660fc89fe0833295cac3804bf1eb70732950141041229a7b1aba70c55fb9940ae7e8b213311bc0e2e37d8d8645350d636c55b0be03ed21f7cbf6a5dfe584d0b600fe88b3d7202a39b20c09078290d1df3a5d7ea18ffffffff02404b4c00000000001976a914f7c7543039102f988b5116d8832ee190a2ae9ab388ac80653201000000001976a914a12d8f2e9ae8e0dd46914df83f2c7ce5420b2cec88ac00000000"
        },
        "raw": {
            "hex" : "01000000010dd2cbc86d40ecddca4532566f0e052e9c52d6a327f0c479cfdcc7d7c58f0cf0010000008c493046022100f1b8d90f6371fb90f74a0bc773a5ba7a6d893eeb96057962e484d44336d86195022100e7649366a02e4b1e95bf533cdba71660fc89fe0833295cac3804bf1eb70732950141041229a7b1aba70c55fb9940ae7e8b213311bc0e2e37d8d8645350d636c55b0be03ed21f7cbf6a5dfe584d0b600fe88b3d7202a39b20c09078290d1df3a5d7ea18ffffffff02404b4c00000000001976a914f7c7543039102f988b5116d8832ee190a2ae9ab388ac80653201000000001976a914a12d8f2e9ae8e0dd46914df83f2c7ce5420b2cec88ac00000000",
            "txid" : "8729e27eeee4d333665b1ef9fe0e28fee037ef2e6ad32d22653d6647554eb49b",
            "version" : 1,
            "locktime" : 0,
            "vin" : [
                {
                    "txid" : "f00c8fc5d7c7dccf79c4f027a3d6529c2e050e6f563245caddec406dc8cbd20d",
                    "vout" : 1,
                    "scriptSig" : {
                        "asm" : "3046022100f1b8d90f6371fb90f74a0bc773a5ba7a6d893eeb96057962e484d44336d86195022100e7649366a02e4b1e95bf533cdba71660fc89fe0833295cac3804bf1eb707329501 041229a7b1aba70c55fb9940ae7e8b213311bc0e2e37d8d8645350d636c55b0be03ed21f7cbf6a5dfe584d0b600fe88b3d7202a39b20c09078290d1df3a5d7ea18",
                        "hex" : "493046022100f1b8d90f6371fb90f74a0bc773a5ba7a6d893eeb96057962e484d44336d86195022100e7649366a02e4b1e95bf533cdba71660fc89fe0833295cac3804bf1eb70732950141041229a7b1aba70c55fb9940ae7e8b213311bc0e2e37d8d8645350d636c55b0be03ed21f7cbf6a5dfe584d0b600fe88b3d7202a39b20c09078290d1df3a5d7ea18"
                    },
                    "sequence" : 4294967295
                }
            ],
            "vout" : [
                {
                    "value" : 0.05000000,
                    "n" : 0,
                    "scriptPubKey" : {
                        "asm" : "OP_DUP OP_HASH160 f7c7543039102f988b5116d8832ee190a2ae9ab3 OP_EQUALVERIFY OP_CHECKSIG",
                        "hex" : "76a914f7c7543039102f988b5116d8832ee190a2ae9ab388ac",
                        "reqSigs" : 1,
                        "type" : "pubkeyhash",
                        "addresses" : [
                            "n475z3kM4yicwNVA47tBJkeTJyDbnjak14"
                        ]
                    }
                },
                {
                    "value" : 0.20080000,
                    "n" : 1,
                    "scriptPubKey" : {
                        "asm" : "OP_DUP OP_HASH160 a12d8f2e9ae8e0dd46914df83f2c7ce5420b2cec OP_EQUALVERIFY OP_CHECKSIG",
                        "hex" : "76a914a12d8f2e9ae8e0dd46914df83f2c7ce5420b2cec88ac",
                        "reqSigs" : 1,
                        "type" : "pubkeyhash",
                        "addresses" : [
                            "mvDBfTKvUyfDRneNTtBZ65JymZaEQ49WWE"
                        ]
                    }
                }
            ]
        }
    },
    "f00c8fc5d7c7dccf79c4f027a3d6529c2e050e6f563245caddec406dc8cbd20d": {
        "transaction": {
            "amount" : 0.04990000,
            "confirmations" : 4,
            "blockhash" : "0000000000000000142b3d704664a02e61986386e7af88c5442ac11ed63a6896",
            "blockindex" : 399,
            "blocktime" : 1410970103,
            "txid" : "f00c8fc5d7c7dccf79c4f027a3d6529c2e050e6f563245caddec406dc8cbd20d",
            "walletconflicts" : [
            ],
            "time" : 1410969905,
            "timereceived" : 1410969905,
            "details" : [
                {
                    "account" : "users",
                    "address" : "1Pb8gzfNFxHNAG1YLYuoUqS8Syctrg11Rk",
                    "category" : "receive",
                    "amount" : 0.04990000
                }
            ],
            "hex" : "01000000014bc9cf6b5a5bd1ce2541991a304d1e4626e62b2e8ac3ed4ac772894a8de3eeaa010000008b483045022100faf8c292dd78f60e14186c75438f41d4c89829c11c59f917e5ebbba43a68b8fe0220765631de7f0db20f874f6d04517258520769d9ce716b78a8f79c412af6d6fc4c0141041229a7b1aba70c55fb9940ae7e8b213311bc0e2e37d8d8645350d636c55b0be03ed21f7cbf6a5dfe584d0b600fe88b3d7202a39b20c09078290d1df3a5d7ea18ffffffff0230244c00000000001976a914f7c7543039102f988b5116d8832ee190a2ae9ab388acd0d77e01000000001976a914a12d8f2e9ae8e0dd46914df83f2c7ce5420b2cec88ac00000000"
        },
        "raw": {
            "hex" : "01000000014bc9cf6b5a5bd1ce2541991a304d1e4626e62b2e8ac3ed4ac772894a8de3eeaa010000008b483045022100faf8c292dd78f60e14186c75438f41d4c89829c11c59f917e5ebbba43a68b8fe0220765631de7f0db20f874f6d04517258520769d9ce716b78a8f79c412af6d6fc4c0141041229a7b1aba70c55fb9940ae7e8b213311bc0e2e37d8d8645350d636c55b0be03ed21f7cbf6a5dfe584d0b600fe88b3d7202a39b20c09078290d1df3a5d7ea18ffffffff0230244c00000000001976a914f7c7543039102f988b5116d8832ee190a2ae9ab388acd0d77e01000000001976a914a12d8f2e9ae8e0dd46914df83f2c7ce5420b2cec88ac00000000",
            "txid" : "f00c8fc5d7c7dccf79c4f027a3d6529c2e050e6f563245caddec406dc8cbd20d",
            "version" : 1,
            "locktime" : 0,
            "vin" : [
                {
                    "txid" : "aaeee38d4a8972c74aedc38a2e2be626461e4d301a994125ced15b5a6bcfc94b",
                    "vout" : 1,
                    "scriptSig" : {
                        "asm" : "3045022100faf8c292dd78f60e14186c75438f41d4c89829c11c59f917e5ebbba43a68b8fe0220765631de7f0db20f874f6d04517258520769d9ce716b78a8f79c412af6d6fc4c01 041229a7b1aba70c55fb9940ae7e8b213311bc0e2e37d8d8645350d636c55b0be03ed21f7cbf6a5dfe584d0b600fe88b3d7202a39b20c09078290d1df3a5d7ea18",
                        "hex" : "483045022100faf8c292dd78f60e14186c75438f41d4c89829c11c59f917e5ebbba43a68b8fe0220765631de7f0db20f874f6d04517258520769d9ce716b78a8f79c412af6d6fc4c0141041229a7b1aba70c55fb9940ae7e8b213311bc0e2e37d8d8645350d636c55b0be03ed21f7cbf6a5dfe584d0b600fe88b3d7202a39b20c09078290d1df3a5d7ea18"
                    },
                    "sequence" : 4294967295
                }
            ],
            "vout" : [
                {
                    "value" : 0.04990000,
                    "n" : 0,
                    "scriptPubKey" : {
                        "asm" : "OP_DUP OP_HASH160 f7c7543039102f988b5116d8832ee190a2ae9ab3 OP_EQUALVERIFY OP_CHECKSIG",
                        "hex" : "76a914f7c7543039102f988b5116d8832ee190a2ae9ab388ac",
                        "reqSigs" : 1,
                        "type" : "pubkeyhash",
                        "addresses" : [
                            "n475z3kM4yicwNVA47tBJkeTJyDbnjak14"
                        ]
                    }
                },
                {
                    "value" : 0.25090000,
                    "n" : 1,
                    "scriptPubKey" : {
                        "asm" : "OP_DUP OP_HASH160 a12d8f2e9ae8e0dd46914df83f2c7ce5420b2cec OP_EQUALVERIFY OP_CHECKSIG",
                        "hex" : "76a914a12d8f2e9ae8e0dd46914df83f2c7ce5420b2cec88ac",
                        "reqSigs" : 1,
                        "type" : "pubkeyhash",
                        "addresses" : [
                            "mvDBfTKvUyfDRneNTtBZ65JymZaEQ49WWE"
                        ]
                    }
                }
            ]
        }
    },
    "7e45945acc7d9505b5252c01c0595a000a28867e822ad0c560d5fc8f82d05528": {
        "transaction": {
            "amount" : -0.26000000,
            "fee" : -0.00010000,
            "confirmations" : 0,
            "txid" : "71ba4ce9631c985a30afb32537a23fb4e3a656a68a6c30d8c66a77b5635cc9f1",
            "walletconflicts" : [
            ],
            "time" : 1410972076,
            "timereceived" : 1410972076,
            "details" : [
                {
                    "account" : "",
                    "address" : "1MC4SpkE9VWQGoLGzuBf6WUdYPJn7ViHcE",
                    "category" : "send",
                    "amount" : -0.26000000,
                    "fee" : -0.00010000
                },
                {
                    "account" : "",
                    "address" : "1BTPSjiSC1s3A5cqJrbDRi2LAHx3U88mKR",
                    "category" : "send",
                    "amount" : -0.23990000,
                    "fee" : -0.00010000
                },
                {
                    "account" : "change",
                    "address" : "1BTPSjiSC1s3A5cqJrbDRi2LAHx3U88mKR",
                    "category" : "receive",
                    "amount" : 0.23990000
                }
            ],
            "hex" : "01000000022855d0828ffcd560c5d02a827e86280a005a59c0012c25b505957dcc5a94457e000000006a47304402200aac4b2a2a1bc81b05bdb7be51f40d4ee26cb5b4d83bf89f88d54e16e506951302207037ee651dc425301a66ab051a4b404ffac29ce793005238ec77006773f1823f0121034dc9df83b1debfd6d6a4634b29f7d5594c5a92cc7603f5f2fdd68fade191dc85ffffffff48a06ec83096a133372c824750761e4a2e3bc3110fd9eb75d8ecbffd598c78bb000000006a47304402200b53973577f4a993aac0da5c15999a3f90e1e658187e62e27721e9130f205395022066535b88eb3aed53eeef4b6c29da2f608f3fbe69d1d510b12dd54a94eec5d7220121034dc9df83b1debfd6d6a4634b29f7d5594c5a92cc7603f5f2fdd68fade191dc85ffffffff0280ba8c01000000001976a914dd79f79985b754aacb9e099efb68f7fc5fdeadfb88acf00e6e01000000001976a91472aeced462fa7c0e2225101337bb3e8196d31fa288ac00000000"
        },
        "raw" : {
            "hex" : "01000000022855d0828ffcd560c5d02a827e86280a005a59c0012c25b505957dcc5a94457e000000006a47304402200aac4b2a2a1bc81b05bdb7be51f40d4ee26cb5b4d83bf89f88d54e16e506951302207037ee651dc425301a66ab051a4b404ffac29ce793005238ec77006773f1823f0121034dc9df83b1debfd6d6a4634b29f7d5594c5a92cc7603f5f2fdd68fade191dc85ffffffff48a06ec83096a133372c824750761e4a2e3bc3110fd9eb75d8ecbffd598c78bb000000006a47304402200b53973577f4a993aac0da5c15999a3f90e1e658187e62e27721e9130f205395022066535b88eb3aed53eeef4b6c29da2f608f3fbe69d1d510b12dd54a94eec5d7220121034dc9df83b1debfd6d6a4634b29f7d5594c5a92cc7603f5f2fdd68fade191dc85ffffffff0280ba8c01000000001976a914dd79f79985b754aacb9e099efb68f7fc5fdeadfb88acf00e6e01000000001976a91472aeced462fa7c0e2225101337bb3e8196d31fa288ac00000000",
            "txid" : "71ba4ce9631c985a30afb32537a23fb4e3a656a68a6c30d8c66a77b5635cc9f1",
            "version" : 1,
            "locktime" : 0,
            "vin" : [
                {
                    "txid" : "7e45945acc7d9505b5252c01c0595a000a28867e822ad0c560d5fc8f82d05528",
                    "vout" : 0,
                    "scriptSig" : {
                        "asm" : "304402200aac4b2a2a1bc81b05bdb7be51f40d4ee26cb5b4d83bf89f88d54e16e506951302207037ee651dc425301a66ab051a4b404ffac29ce793005238ec77006773f1823f01 034dc9df83b1debfd6d6a4634b29f7d5594c5a92cc7603f5f2fdd68fade191dc85",
                        "hex" : "47304402200aac4b2a2a1bc81b05bdb7be51f40d4ee26cb5b4d83bf89f88d54e16e506951302207037ee651dc425301a66ab051a4b404ffac29ce793005238ec77006773f1823f0121034dc9df83b1debfd6d6a4634b29f7d5594c5a92cc7603f5f2fdd68fade191dc85"
                    },
                    "sequence" : 4294967295
                },
                {
                    "txid" : "bb788c59fdbfecd875ebd90f11c33b2e4a1e765047822c3733a19630c86ea048",
                    "vout" : 0,
                    "scriptSig" : {
                        "asm" : "304402200b53973577f4a993aac0da5c15999a3f90e1e658187e62e27721e9130f205395022066535b88eb3aed53eeef4b6c29da2f608f3fbe69d1d510b12dd54a94eec5d72201 034dc9df83b1debfd6d6a4634b29f7d5594c5a92cc7603f5f2fdd68fade191dc85",
                        "hex" : "47304402200b53973577f4a993aac0da5c15999a3f90e1e658187e62e27721e9130f205395022066535b88eb3aed53eeef4b6c29da2f608f3fbe69d1d510b12dd54a94eec5d7220121034dc9df83b1debfd6d6a4634b29f7d5594c5a92cc7603f5f2fdd68fade191dc85"
                    },
                    "sequence" : 4294967295
                }
            ],
            "vout" : [
                {
                    "value" : 0.26000000,
                    "n" : 0,
                    "scriptPubKey" : {
                        "asm" : "OP_DUP OP_HASH160 dd79f79985b754aacb9e099efb68f7fc5fdeadfb OP_EQUALVERIFY OP_CHECKSIG",
                        "hex" : "76a914dd79f79985b754aacb9e099efb68f7fc5fdeadfb88ac",
                        "reqSigs" : 1,
                        "type" : "pubkeyhash",
                        "addresses" : [
                            "1MC4SpkE9VWQGoLGzuBf6WUdYPJn7ViHcE"
                        ]
                    }
                },
                {
                    "value" : 0.23990000,
                    "n" : 1,
                    "scriptPubKey" : {
                        "asm" : "OP_DUP OP_HASH160 72aeced462fa7c0e2225101337bb3e8196d31fa2 OP_EQUALVERIFY OP_CHECKSIG",
                        "hex" : "76a91472aeced462fa7c0e2225101337bb3e8196d31fa288ac",
                        "reqSigs" : 1,
                        "type" : "pubkeyhash",
                        "addresses" : [
                            "1BTPSjiSC1s3A5cqJrbDRi2LAHx3U88mKR"
                        ]
                    }
                }
            ]
        }
    }
}
